:020000040800F2
:10000000F00C0020890100084D3A00084F3A000822
:10001000533A0008573A00085B3A00080000000015
:100020000000000000000000000000005F3A00082F
:10003000613A000800000000633A0008653A0008D1
:10004000A3010008A3010008A3010008A301000800
:10005000A3010008A3010008A3010008A3010008F0
:10006000A3010008A3010008A3010008A3010008E0
:10007000A3010008A3010008A3010008A3010008D0
:10008000A3010008A3010008A3010008A3010008C0
:10009000A3010008A3010008A3010008A3010008B0
:1000A000A3010008CD380008A3010008A30100083F
:1000B000673A0008A3010008A3010008A301000893
:1000C000A3010008A3010008A3010008A301000880
:1000D000A3010008AF3700081738000831380008BE
:1000E000A3010008A3010008A301000800F002F822
:1000F00000F03AF80AA090E8000C82448344AAF188
:100100000107DA4501D100F02FF8AFF2090EBAE885
:100110000F0013F0010F18BFFB1A43F0010318473B
:10012000304C0000504C0000103A24BF78C878C111
:10013000FAD8520724BF30C830C144BF04680C60ED
:10014000704700000023002400250026103A28BF35
:1001500078C1FBD8520728BF30C148BF0B60704739
:100160001FB51FBD10B510BD03F0F5FD1146FFF71B
:10017000F7FF03F015FC03F013FE03B4FFF7F2FFE3
:1001800003BC03F09DF90000094880470948004777
:10019000FEE7FEE7FEE7FEE7FEE7FEE7FEE7FEE737
:1001A000FEE7FEE704480549054A064B7047000094
:1001B000673B0008ED000008F0060020F00C00206E
:1001C000F0080020F008002031490143314A116055
:1001D000704770B5002100230F22C47804B32D4C62
:1001E000246804F4E064C4F5E064210AC1F1040366
:1001F000CA40447804FA03F1847814402143090189
:10020000254C0678A155047804F01F050124AC4064
:1002100005786D11AD0005F1E025C5F8004109E054
:10022000047804F01F050124AC401C4D06787611BB
:1002300045F8264070BD1A4A0A400243154B1B1F61
:100240001A60704739B1134A121D12680243114BEC
:100250001B1D1A6006E00F4A121D126882430D4BE7
:100260001B1D1A607047042808D14FF0E02109696E
:1002700041F004014FF0E022116107E04FF0E0216E
:10028000096921F004014FF0E0221161704700007C
:100290000000FA050CED00E000E400E080E100E081
:1002A00080FFFF1F10B50446FA48844208D101219F
:1002B000401500F01DFE0021601500F019FE17E04A
:1002C000F548844208D10121001500F011FE0021FB
:1002D000201500F00DFE0BE0F048844208D101210A
:1002E000C80300F005FE00214FF4004000F000FEBE
:1002F00010BD30B50246002000235068E84C204075
:100300000D790C6844EA0524204350609068E54C60
:100310002040D1E902542C434D7944EA450420435E
:100320009060D06A20F470000C7C641EE4B2234319
:1003300040EA0350D06230BD00210160017141717B
:100340008160C16001210174704721B1826842F06F
:100350000102826003E0826822F00102826070473D
:1003600021B1826842F48072826003E0826822F4E4
:1003700080728260704710B50023CBB21AB1446816
:100380001C43446002E044689C43446010BD8168A3
:1003900041F0080181607047014600208A6802F040
:1003A00008020AB1012000E000207047816841F096
:1003B000040181607047014600208A6802F004024F
:1003C0000AB1012000E00020704721B1826842F4A8
:1003D000A002826003E0826822F4A002826070477B
:1003E000014600208A6802F480020AB1012000E080
:1003F0000020704710B50A4600210023416821F40F
:100400006041531E41EA4331416010BD21B1426851
:1004100042F40062426003E0426822F400624260FB
:100420007047F0B504460D4600200021092D11DD6E
:10043000E068A5F10A0606EB4607072606FA07F16B
:100440008843A5F10A0606EB460603FA06F10843BF
:10045000E0600CE0206905EB4507072606FA07F186
:10046000884305EB450603FA06F108432061072A95
:100470000FDA606B561E06EB86071F2606FA07F199
:100480008843561E06EB860605FA06F108436063AC
:1004900022E00D2A0FDA206BD61F06EB86071F26F7
:1004A00006FA07F18843D61F06EB860605FA06F121
:1004B0000843206310E0E06AA2F10D0606EB860710
:1004C0001F2606FA07F18843A2F10D0606EB860601
:1004D00005FA06F10843E062F0BD21B1826842F4FA
:1004E0008012826003E0826822F48012826070478A
:1004F0000146C86C80B2704766484C30006870474F
:1005000021B1426842F48062426003E0426822F412
:1005100080624260704721B1426842F4805242607A
:1005200003E0426822F48052426070470A4600218C
:10053000816821F4E04111438160704721B18268F4
:1005400042F40042826003E0826822F4004282604A
:10055000704721B1826842F40212826003E082682F
:1005600022F4021282607047014600208A6802F479
:1005700000120AB1012000E000207047F0B50446E7
:100580001546002000220026092911DDE068A1F1AE
:100590000A0707EB470C072707FA0CF29043A1F173
:1005A0000A0707EB470703FA07F21043E0600CE085
:1005B000206901EB410C072707FA0CF2904301EB8D
:1005C000410703FA07F210432061A06BC0F3015604
:1005D000EF1C06F1010CA7EB0C0707EB870C1F279C
:1005E00007FA0CF29043EF1C06F1010CA7EB0C0785
:1005F00007EB870701FA07F21043A063F0BD10B5BF
:100600000A4600210023816B21F44011531E41EA68
:100610000351816310BD08B5002300930090009B37
:100620000B440093009B1A6008BD08B502460020E9
:100630000090009201F12800009B1844009000985F
:10064000006880B208BD0A4600214168164B194077
:100650001143416070474162826270470A4600213F
:10066000416821F01F0111434160704740B10949C1
:100670000831096841F40001064A0832116007E0B8
:1006800004490831096821F40001024A0832116066
:10069000704700000024014000280140003C014058
:1006A000FFFEF0FFFDF7F1FFFFFD3FFF02460020D8
:1006B00013680B400BB1012000E000207047CA43D3
:1006C0000260704770B502460020002300240B1220
:1006D0005568CEB205EA060415681D4015B10CB187
:1006E000012000E0002070BD00220A12D343036005
:1006F0007047000010B5012000F014FC002000F04D
:1007000011FC10BD2A49086070472949091F08607B
:100710007047274984310860704701460020254A08
:1007200010884FF67F4210400843224A10807047DD
:10073000014600201F4A10884FF68072104008437F
:100740001C4A1080704708B500220092194A2C3AC2
:100750000092009A02440092009A116008BD08B508
:1007600001460020009013482C380090009808445F
:1007700000900098008808BD0D489C300068C0B209
:1007800070470C480830008840F0010009490831E2
:10079000088070470648A0300068C0B2704705481E
:1007A0000830008840F00200024908310880704794
:1007B00004860D422C6C004010B50446CC4884429F
:1007C00008D10121042000F093FB0021042000F057
:1007D0008FFB46E0C748844208D10121082000F081
:1007E00087FB0021082000F083FB3AE0C2488442E6
:1007F00008D10121102000F07BFB0021102000F027
:1008000077FB2EE0BD48844208D10121202000F072
:100810006FFB0021202000F06BFB22E0B8488442EF
:1008200008D10121402000F063FB0021402000F0AE
:100830005FFB16E0B348844208D10121802000F01C
:1008400057FB0021802000F053FB0AE0AE488442B1
:1008500007D10121801500F04BFB0021A01500F00D
:1008600047FB10BD10B50121084600F041FB0021F7
:10087000012000F03DFB10BD2DE9F04102460025AE
:100880000026002000230024002791F803C00CF06C
:100890000F0591F803C00CF0100CBCF1000F03D051
:1008A00091F802C04CEA050591F800C0BCF1000FB8
:1008B00031D0146800202BE04FF0010C0CFA00F34B
:1008C000B1F800C00CEA03069E4220D183004FF02D
:1008D0000F0C0CFA03F7BC4305FA03FC4CEA0404C2
:1008E00091F803C0BCF1280F06D14FF0010C0CFAAF
:1008F00000FCC2F814C00AE091F803C0BCF1480F34
:1009000005D14FF0010C0CFA00FCC2F810C0401CDD
:100910000828D1D31460B1F800C0BCF1FF0F34DD5A
:10092000546800202EE000F1080C4FF0010808FA8E
:100930000CF3B1F800C00CEA03069E4221D18300FB
:100940004FF00F0C0CFA03F7BC4305FA03FC4CEA1A
:10095000040491F803C0BCF1280F05D100F1080C84
:1009600008FA0CF8C2F8148091F803C0BCF1480FE3
:1009700007D100F1080C4FF0010808FA0CF8C2F892
:100980001080401C0828CED35460BDE8F0814FF69B
:10099000FF710180022181700421C17070470246FD
:1009A000002093680B400BB1012000E0002070474D
:1009B0000146886880B2704702460020D3680B4029
:1009C0000BB1012000E0002070470146C86880B2EA
:1009D000704701617047416170470AB1016100E0F1
:1009E00041617047C16070474FF480320A438261B1
:1009F0008161826182698269704702460020434BAF
:100A000018684FF68073184040EA021008433F4BC5
:100A1000186070473E49C8617047F0B50A46002328
:100A200000240021002500F00046B6F1004F02D15D
:100A3000364EF16901E0354E7168C0F3034583B26B
:100A400000F44016B6F5401F08D121F070612F4E1A
:100A5000766826F070662D4F7E6012E000F48016F6
:100A6000B6F5801F06D1032606FA05F4A14341F02E
:100A7000706106E0460D360103FA06F6B14341F017
:100A8000706122B1460D360103FA06F6314300F0DB
:100A90000046B6F1004F02D11C4EF16101E01B4E41
:100AA0007160F0BD30B500228B071C0F0F2303FAD5
:100AB00004F2164B08338C1053F824309343134C34
:100AC00008348D1044F8253023468C1053F8243018
:100AD0008C07240F00FA04F423430C4C08348D10C7
:100AE00044F8253030BD0A49DC3108607047000009
:100AF00000080140000C01400010014000140140BA
:100B000000180140001C014000200140000001408D
:100B10000000204210B50121080700F0F6F900217D
:100B20004FF0805000F0F1F910BD2A49086270477B
:100B300028490861704701460020274A106820F0C4
:100B4000E0000843106070472249A03108607047F8
:100B500010B502460020204B186820F00300104317
:100B600018601E4B1B6843F004031C4C23600129D2
:100B700001D130BF00E020BF184B1B6823F00403F5
:100B8000164C236010BD1448006840F00400124960
:100B900008600846006840F0020008600F480068DE
:100BA00040F004000D49086000BF00BF30BF70472F
:100BB00001460020084A52680A400AB1012000E0BC
:100BC000002070470449096841EA8001024A116027
:100BD0007047000000000E420070004010ED00E081
:100BE000DF48006840F00100DD49086008464068C1
:100BF000DC490840DA49486008460068DA4908409C
:100C0000D74908600846006820F48020086008463C
:100C1000406820F4FE0048604FF41F008860704771
:100C2000CF49096821F48031CD4A11601146096825
:100C300021F480211160B0F5803F03D0B0F5802F02
:100C40000ED106E0C649096841F48031C44A1160FA
:100C500007E0C349096841F4A021C14A116000E0DE
:100C600000BF00BF704710B50146002200230020DE
:100C70004A11012A02D1BA4C236806E0022A02D1A5
:100C8000B74C236A01E0B64C636A01F01F020124ED
:100C900094401C400CB1012000E0002010BD38B58C
:100CA000002000900024002500BF3120FFF7DBFF6B
:100CB00005460098401C00900098B0F5A06F01D048
:100CC000002DF2D03120FFF7CEFF08B1012400E063
:100CD0000024204638BD01460020A14A106820F0BB
:100CE000F80040EAC10010607047A04908607047F2
:100CF000024600209A4B586820F47C1042EA010317
:100D00001843974B586070479849086670470146EA
:100D10000020934A506820F0030008435060704759
:100D20008F48406800F00C007047014600208C4A54
:100D3000506820F0F00008435060704701460020E2
:100D4000874A506820F4E0600843506070470146CD
:100D50000020834A506820F4605040EAC10050608F
:100D6000704729B17E4A527A02437D4B5A7204E0A1
:100D70007B4A527A82437A4B5A7270477B49D83108
:100D80000860704701460020754A506820F44040D2
:100D90000843506070470021714A20321170704A38
:100DA00082F82010012802D004280AD104E0012191
:100DB0006B4A2032117005E00521694A203211701A
:100DC00000E000BF00BF7047694908607047644990
:100DD000096A0143624A11627047654944390860F3
:100DE000704730B500210022002400235C4D6D685F
:100DF00005F00C0121B1042905D0082923D105E013
:100E00005C4D056022E05B4D05601FE0544D6D6850
:100E100005F47012524D6D6805F48034022505EB1F
:100E200092421CB9544D554305600BE04C4D6D6822
:100E300005F400351DB1504D5543056002E04D4DA0
:100E40005543056002E04B4D056000BF00BF444DB7
:100E50006D6805F0F0010909484D6B5C0568DD40DF
:100E600045603F4D6D6805F4E061090A434D6B5CD8
:100E70004568DD4085603A4D6D6805F46051C90AEA
:100E80003E4D6B5C4568DD40C560354D6D6805F4D1
:100E90004041890B3A4D6B5CC568B5FBF3F50561C4
:100EA00030BD29B12E4A526902432D4B5A6104E0EC
:100EB0002B4A526982432A4B5A61704729B1284A0A
:100EC00092690243264B9A6104E0254A9269824363
:100ED000234B9A61704729B1214AD2690243204BC2
:100EE000DA6104E01E4AD26982431D4BDA61704721
:100EF00029B11B4AD2680243194BDA6004E0184A50
:100F0000D2688243164BDA60704729B1144A1269DD
:100F10000243134B1A6104E0114A12698243104BD9
:100F20001A61704712494039086070470F49C86418
:100F300070470B49C87170470948406A40F080709B
:100F400007494862704701460020054A92680A40F6
:100F50000AB1012000E00020704701498872704703
:100F6000001002400000FFF8FFFFF6FE00004242C2
:100F70008004424200127A0000093D000000002077
:100F80001000002010B50446FE48844208D101211B
:100F9000C014FFF7ADFF0021E014FFF7A9FFC4E084
:100FA000B4F1804F08D101210846FFF7AEFF0021C0
:100FB0000120FFF7AAFFB8E0F348844208D10121DD
:100FC0000220FFF7A2FF00210220FFF79EFFACE006
:100FD000EE48844208D101210420FFF796FF00214A
:100FE0000420FFF792FFA0E0E948844208D10121E4
:100FF0000820FFF78AFF00210820FFF786FF94E012
:10100000E448844208D101211020FFF77EFF00212F
:101010001020FFF77AFF88E0DF48844208D10121E1
:101020002020FFF772FF00212020FFF76EFF7CE0F9
:10103000DA48844208D101214014FFF759FF00210A
:101040006014FFF755FF70E0D548844209D10121B3
:10105000C804FFF74DFF00214FF40020FFF748FFC1
:1010600063E0D048844209D101210805FFF740FF21
:1010700000214FF48010FFF73BFF56E0CA4884423E
:1010800009D101214805FFF733FF00214FF400107B
:10109000FFF72EFF49E0C548844208D101214020D6
:1010A000FFF733FF00214020FFF72FFF3DE0C0484E
:1010B000844208D101218020FFF727FF00218020F2
:1010C000FFF723FF31E0BB48844208D1012180159E
:1010D000FFF71BFF0021A015FFF717FF25E0B6481B
:1010E000844209D101210804FFF702FF00214FF4D7
:1010F0008030FFF7FDFE18E0B048844209D101219D
:101100004804FFF7F5FE00214FF40030FFF7F0FE32
:101110000BE0AB48844208D101218804FFF7E8FEC8
:1011200000214FF48020FFF7E3FE10BD002202886B
:10113000944B98420ED0994B98420BD0B0F1804F0F
:1011400008D0914B984205D0904B984202D0904BDA
:10115000984204D14FF68F731A404B881A438D4B37
:10116000984207D08C4B984204D04FF6FF431A4068
:10117000CB881A4302808B8883850B880385814B3B
:1011800098420BD0854B984208D08B4B984205D0A3
:101190008A4B984202D08A4B984201D10B7A03863F
:1011A00001238382704770B5002400220023058C40
:1011B0004FF6FE7635400584028C8388048B4FF60B
:1011C0008F752C40B51E2C400D882C43751E2A406F
:1011D0000D892A434D882A436A4DA8420BD06F4D92
:1011E000A84208D0744DA84205D0744DA84202D040
:1011F000734DA84213D14FF6F7752A404D892A4303
:101200004FF6FB752A408D882A434FF6FF652B4029
:101210004FF6FF552B408D892B43CD892B4383807F
:101220000483CD888586028470BD70B500240022B9
:101230000023058C4FF6EF7635400584028C8388B9
:10124000048B48F6FF752C404FF6FF452C400D8867
:101250004FF6FF7606EA05252C434FF6DF752A4048
:101260000D8906EA05152A434D8806EA05152A4325
:10127000444DA84202D0494DA8421DD14FF67F757A
:101280002A404D894FF6FF7606EA05152A434FF6A8
:10129000BF752A408D8806EA05152A434FF6FF35AB
:1012A0002B404FF2FF752B408D8906EA85052B43B5
:1012B000CD8906EA85052B4383800483CD88058785
:1012C000028470BD70B5002400220023058C4FF607
:1012D000FF6635400584028C8388848B4FF68F75BA
:1012E0002C404FF6FC752C400D882C434FF6FF55D3
:1012F0002A400D894FF6FF7606EA05252A434D88D8
:1013000006EA05252A431F4DA84202D0234DA842D4
:101310001DD14FF2FF752A404D894FF6FF7606EA40
:1013200005252A434FF6FF352A408D8806EA052514
:101330002A434EF6FF752B404DF6FF752B408D89E5
:1013400006EA05152B43CD8906EA05152B43838054
:101350008483CD888587028470BD70B50022002308
:101360000024058C4EF6FF7635400584038C848876
:10137000828B48F6FF752A404FF6FF452A400D88BC
:1013800020E00000002C0140000400400008004064
:10139000000C0040001000400014004000340140E8
:1013A000004C014000500140005401400018004032
:1013B000001C00400020004000400140004401406B
:1013C000004801404FF6FF7606EA05252A434DF610
:1013D000FF752B400D8906EA05352B434D8806EA3B
:1013E00005352B43FA4DA84202D0FA4DA84208D148
:1013F0004BF6FF752C408D894FF6FF7606EA851572
:101400002C4384808283CD88A0F84050038470BD33
:10141000828B4FF2FF331A408283828B4FF6FF7329
:1014200003EA01231A4382837047F0B50C46154640
:10143000002200210026078C4EF6FF7C07EA0C07ED
:101440000784828B018C4FF6FF7707EA043640F65B
:10145000FF473A404FF6FF7707EA05273A434FF632
:10146000FF7707EA03373A43D94FB8420ED0D94F36
:10147000B8420BD0B0F1804F08D0D74FB84205D05A
:10148000D64FB84202D0D64FB84206D14DF6FF77BC
:10149000394046F48057394305E047F6FF57394055
:1014A00044F48057394382830184F0BD828B4FF628
:1014B000F3731A408283828B0A4382837047F0B5AC
:1014C0000C461546002200210026078C4FF6FF6CC3
:1014D00007EA0C070784828B018C4FF6FF7707EA37
:1014E00004264FF60C773A404FF6FF7707EA0317CA
:1014F0002F433A43B64FB8420ED0B64FB8420BD046
:10150000B0F1804F08D0B44FB84205D0B34FB842C5
:1015100002D0B34FB84206D14FF6FF57394046F4D8
:101520008077394305E04FF2FF57394044F4807724
:10153000394382830184F0BD028B4FF2FF331A409E
:101540000283028B4FF6FF7303EA01231A430283DF
:101550007047F0B50C461546002200210026078C86
:101560004FF6EF7C07EA0C070784028B018C4FF6DD
:10157000FF7707EA041640F6FF473A404FF6FF7739
:1015800007EA03373A434FF6FF7707EA05273A435E
:101590008F4FB8420ED08F4FB8420BD0B0F1804F72
:1015A00008D08D4FB84205D08C4FB84202D08C4F36
:1015B000B84206D14FF6DF77394046F0100739437D
:1015C00005E04FF65F77394044F010073943028356
:1015D0000184F0BD028B4FF6F3731A400283028B35
:1015E0000A4302837047F0B50C46154600220021DD
:1015F000068C4FF6FE773E400684028B018C4FF638
:101600000C7632407E1C06EA03162E433243704E9F
:10161000B0420ED06F4EB0420BD0B0F1804F08D028
:101620006D4EB04205D06D4EB04202D06C4EB0420D
:1016300006D14FF6FD76314044F00106314305E016
:101640004FF6F576314044F00106314302830184C0
:10165000F0BD70B505460C465D4885420ED05D482C
:1016600085420BD0B5F1804F08D05B48854205D04C
:101670005A48854202D05A48854200D100E000BF56
:10168000208850B92389A28861882846FFF7ABFFDC
:10169000E1882846FFF79EFF25E0208804280AD12C
:1016A0002389A28861882846FFF753FFE1882846EE
:1016B000FFF742FF17E0208808280AD12389A28873
:1016C00061882846FFF7FBFEE1882846FFF7EEFE1B
:1016D00009E02389A28861882846FFF7A6FEE188F1
:1016E0002846FFF795FE70BD2DE9F04105460C46F2
:1016F00000260127608808B9022600E00026A0889D
:10170000012801D1022700E001272088A0B9238900
:10171000A28861882846FFF766FFE1882846FFF720
:1017200059FF23893A4631462846FFF712FFE188E0
:101730002846FFF701FF13E02389A2886188284625
:10174000FFF707FFE1882846FFF7F6FE23893A46B0
:1017500031462846FFF747FFE1882846FFF73AFF62
:10176000BDE8F0810A884B881A438B881A43CB88DE
:101770001A430B891A434B891A438B891A43A0F8E1
:10178000442070474FF6FF71818000210180C180A5
:101790004180017270470021018041808180C180B9
:1017A000018141818181C181704700210180418097
:1017B000012181800021C1800181704700210180C9
:1017C00041808180C1800181418181817047000019
:1017D000002C01400034014000040040000800409B
:1017E000000C004021B1028842F00102028004E0B6
:1017F00002884FF6FE731A400280704731B1B0F88C
:10180000442042F40042A0F8442005E0B0F844200F
:10181000C2F30E02A0F8442070471AB183890B432B
:10182000838102E083898B43838170478182704783
:1018300041EA0203A0F8483070471AB183890B438C
:10184000838102E083898B438381704701894FF64E
:10185000F8721140018170470A46002101894FF654
:101860008F73194011430181704730B504460D460E
:1018700029462046FFF7F0FF208940F0070020812D
:1018800030BD2DE9F04104460D4616461F46602D39
:1018900006D13B46012231462046FFF75AFE05E0BD
:1018A0003B46012231462046FFF79DFE2946204651
:1018B000FFF7D2FF208940F007002081BDE8F081CA
:1018C00030B50C4600210189C9B24FF6FF7505EA13
:1018D0000325154325432943018130BD2DE9F041FE
:1018E00005460E4617469846002443463A4631467A
:1018F0002846FFF7E5FF2C894FF6F870044044F0C6
:1019000007044FF68F70044044F070042C81BDE84A
:10191000F081F0B504460D4616461F463B4632465A
:1019200029462046FFF7CCFF208940F480402081E3
:10193000F0BD0185828270470A46002101884FF67A
:101940008F731940114301807047F0B50C4615465E
:101950001E460021002200230189028B038C4FF6D2
:10196000F877394021434FF6FC473A4040F20117DF
:101970003A434FF6DD773B404FF6FF7707EA06170D
:101980002F433B43018102830384F0BD0A460021BB
:10199000018B4FF68F7319401143018370470A463C
:1019A0000021018B48F6FF7319404FF6FF7303EADD
:1019B00002231943018370470A460021818B4FF6A9
:1019C0008F7319401143818370470A460021818B30
:1019D00048F6FF7319404FF6FF7303EA02231943D9
:1019E0008183704721B1028842F08002028004E0C6
:1019F00002884FF67F731A400280704721B18288B7
:101A000042F00402828004E082884FF6FB731A40A1
:101A10008280704721B1828842F00802828004E00F
:101A200082884FF6F7731A408280704721B182880E
:101A300042F00102828004E082884FF6FE731A4071
:101A4000828070470A460021018B4FF6F7731940D8
:101A50001143018370470A460021018B4FF2FF7347
:101A600019404FF6FF7303EA0223194301837047BD
:101A70000A460021818B4FF6F77319401143818389
:101A800070470A460021818B4FF2FF7319404FF6D1
:101A9000FF7303EA02231943818370470A4600213A
:101AA000018B4FF6FB7319401143018370470A46BF
:101AB0000021018B4FF6FF3319404FF6FF7303EA05
:101AC00002231943018370470A460021818B4FF698
:101AD000FB7319401143818370470A460021818BB3
:101AE0004FF6FF3319404FF6FF7303EA0223194301
:101AF000818370470A460021018B4FF67F7319409E
:101B00001143018370470A460021018BC1F30E0186
:101B10004FF6FF7303EA02231943018370470A4615
:101B20000021818B4FF67F731940114381837047E9
:101B30000A460021818BC1F30E014FF6FF7303EAC1
:101B400002231943818370470A460021018C4FF616
:101B5000FD7319401143018470470A460021018C2E
:101B60004FF6F77319401143018470470A4600216C
:101B7000018C4FF6DF7319404FF6FF7303EA02132F
:101B80001943018470470A460021018C4FF67F7388
:101B900019404FF6FF7303EA02131943018470479B
:101BA0000A460021018C4FF6FF5319404FF6FF7390
:101BB00003EA02231943018470470A460021018C7D
:101BC0004FF2FF7319404FF6FF7303EA02231943E4
:101BD000018470470A460021018C4DF6FF731940BD
:101BE0004FF6FF7303EA023319430184704730B59F
:101BF000002301248C40A3B2048C9C430484048CF5
:101C000002FA01F5ADB22C43048430BD30B5002397
:101C100004248C40A3B2048C9C430484048C02FAF8
:101C200001F5ADB22C43048430BD70B503460020ED
:101C300000241846183001258D40ACB21D8CA543F8
:101C40001D8409B1082909D100EB6100056825F060
:101C5000700505600568154305600EE00D1FC5F3AE
:101C60004E052844056825F4E045056005684FF6F3
:101C7000FF7606EA02263543056070BD21B1028871
:101C800042F00202028004E002884FF6FD731A401F
:101C90000280704721B1028842F00402028004E011
:101CA00002884FF6FB731A400280704721B1828888
:101CB00042F08002828004E082884FF67F731A40EF
:101CC0008280704702884FF6F7731A4002800288BC
:101CD0000A430280704782884FF68F731A408280D1
:101CE00082880A438280704702894FF6F8731A404F
:101CF000028102890A430281704702894FF67F738D
:101D00001A40028102890A43028170478184704728
:101D1000818570478186704701877047818770474A
:101D2000A0F84010704702884FF6FF431A40028027
:101D300002880A43028070470146888E7047014638
:101D4000088F70470146888F70470146B1F8400000
:101D500070470146888C70470146088D70470246DF
:101D60000020138A0B400BB1012000E000207047D7
:101D7000CA430282704730B5024600200023002487
:101D8000158A05EA0103958905EA010413B10CB12E
:101D9000012000E0002030BDCA43028270470000ED
:101DA00010B50446FB48844209D101218803FFF79E
:101DB0009FF800214FF48040FFF79AF832E0F64890
:101DC000844209D101214804FFF79FF800214FF414
:101DD0000030FFF79AF825E0F048844209D101214C
:101DE0008804FFF792F800214FF48020FFF78DF868
:101DF00018E0EB48844209D10121C804FFF785F8B7
:101E000000214FF40020FFF780F80BE0E548844202
:101E100008D101210805FFF778F800214FF4801060
:101E2000FFF773F810BD2DE9F04786B005460E4662
:101E30000024A24600BFA1460027B08900B100BF20
:101E40002F462C8A4CF6FF700440F08804432C8205
:101E5000AC894EF6F3100440B0883189084371898B
:101E600008430443AC81AC8A4FF6FF400440B0897C
:101E70000443AC8201A8FEF7B4FFC648874202D1F2
:101E8000DDF810A001E0DDF80CA0A88900F4004006
:101E900040B10AEBCA0000EB0A1031684900B0FB00
:101EA000F1F807E00AEBCA0000EB0A10316889007C
:101EB000B0FBF1F86420B8FBF0F0040120096421C4
:101EC00001FB1089A88900F4004040B1322000EBEA
:101ED000C900B0FBF1F000F00700044308E0322035
:101EE00000EB09106421B0FBF1F000F00F00044397
:101EF0002C8106B0BDE8F0874FF416510160002137
:101F00008180C18001810C21418100218181704744
:101F100010B502460020108A4FF2FF0318400B88CC
:101F20004C8823438C882343CC8823431843108256
:101F300010BD0021018041808180C180704721B1A6
:101F4000828942F40052828104E082894DF6FF7357
:101F50001A4082817047F0B5034600240026002510
:101F6000002040F66A17B94200D100BF1846C1F3FD
:101F7000421401F01F06012707FA06F5012C01D1D2
:101F80000C3004E0022C01D1103000E014301AB102
:101F900007682F43076002E00768AF430760F0BDA2
:101FA0001AB1838A0B43838202E0838A8B43838244
:101FB0007047028A4FF6F0731A400282028A0A437F
:101FC0000282704782894FF2FF731A4082818289B0
:101FD0000A438281704721B1828942F002028281E4
:101FE00004E082894FF6FD731A4082817047028AAD
:101FF0004FF6DF731A400282028A0A430282704758
:1020000021B1028A42F48042028204E0028A4BF645
:10201000FF731A4002827047C1F308028280704742
:1020200001468888C0F308007047818941F00101AA
:1020300081817047028BD2B20283028B42EA012275
:1020400002837047028B02F47F420283028B0A43B1
:102050000283704721B1828A42F02002828204E02A
:10206000828A4FF6DF731A408282704721B1828ADA
:1020700042F01002828204E0828A4FF6EF731A4027
:102080008282704721B1828A42F00802828204E093
:10209000828A4FF6F7731A408282704721B1828993
:1020A00042F40042828103E08289C2F30E028281FF
:1020B000704721B1828A42F40062828204E0828AFF
:1020C0004FF2FF731A4082827047828A4FF6FB7389
:1020D0001A408282828A0A438282704721B1828AB0
:1020E00042F00202828204E0828A4FF6FD731A40B7
:1020F0008282704702460020B1F5007F00D100BF08
:1021000013880B400BB1012000E00020704701F460
:102110000072B2F5007F00D100BFCA430280704751
:1021200070B50246002400230025002040F66A1600
:10213000B14200D100BFC1F3421501F01F030126D7
:1021400006FA03F3012D02D19689334006E0022DF1
:1021500002D1168A334001E0968A33400C120126E0
:1021600006FA04F41688344013B10CB1012000E0E3
:10217000002070BD10B50022002340F66A14A14271
:1021800000D100BF0A1201249440A3B2DC430480B2
:1021900010BD0000003801400044004000480040ED
:1021A000004C00400050004000B587B001214FF4C2
:1021B0000270FEF783FE4FF40040FEF7E3FD0220BD
:1021C000ADF8040000208DF8070001A93648FEF79D
:1021D00053FB3648FEF766F8002002908DF80C009D
:1021E0008DF80D004FF46020049000200590012030
:1021F0008DF8180002A92D48FEF77BF801212B4825
:10220000FEF7A3F82948FEF7C2F800BF2748FEF7FB
:10221000C3F80028FAD12548FEF7C8F800BF2348C4
:10222000FEF7C9F80028FAD107B000BD10B5044682
:102230000723012221461D48FEF7F3F801211B4820
:10224000FEF7C3F800BF02211848FEF72FFA002856
:10225000F9D01648FEF74CF910BD2DE9F04F85B0C6
:102260000920FFF7E3FF019001F02FFF4FF06632E6
:102270000F4BCDE9020101F03BFF804600220D4BE0
:1022800001F036FF064600220B4B01F031FF0446F9
:1022900000220A4B01F092FD824601F0E7FE049015
:1022A000049805B0BDE8F08F000C01400024014007
:1022B00066660A4000002640000059400000B04019
:1022C00008B501210420FEF7F9FD4FF48070ADF848
:1022D000000010208DF8030003208DF802006946ED
:1022E0001B48FEF7C9FA4FF480711948FEF771FBDD
:1022F00008BD10B54FF480711548FEF76CFB4FF424
:10230000FA7001F058F84FF480711148FEF761FB44
:102310004FF4FA7001F04FF810BD70B50446002577
:1023200000BF11E04FF480710948FEF754FB96207E
:1023300001F041F84FF480710548FEF74AFB962002
:1023400001F039F8681CC5B2A542EBDB70BD000096
:10235000000801400146A1F130020A2A1AD2DFE842
:1023600002F00507090B0D0F11131517002011E0DE
:1023700001200FE002200DE003200BE0042009E023
:10238000052007E0062005E0072003E0082001E023
:10239000092000BF00BF7047F0B585B005460E4666
:1023A0001421684601F0ACFC0024002700BF0CE0BB
:1023B0000A20B5FBF0F100FB115030300DF804009D
:1023C000601CC4B20A20B5FBF0F5002DF0D1274601
:1023D000002406E0381B401E1DF800003055601C2C
:1023E000C4B2BC42F6DB0020305505B0F0BD0000A1
:1023F00010B504460422FAA1204601F036FC08B9C3
:10240000012010BD0020FCE710B504460422F6A10F
:10241000204601F02AFC08B9012010BD0020FCE78D
:1024200010B504460422F2A1204601F01EFC08B9B2
:10243000012010BD0020FCE710B504460422EEA1E7
:10244000204601F012FC08B9012010BD0020FCE775
:1024500010B504460422EAA1204601F006FC08B9A2
:10246000012010BD0020FCE710B504460422E6A1BF
:10247000204601F0FAFB08B9012010BD0020FCE75E
:1024800010B504460422E2A1204601F0EEFB08B993
:10249000012010BD0020FCE710B504460422DEA197
:1024A000204601F0E2FB08B9012010BD0020FCE746
:1024B00010B504460422DAA1204601F0D6FB08B983
:1024C000012010BD0020FCE710B504460422D6A16F
:1024D000204601F0CAFB08B9012010BD0020FCE72E
:1024E00010B504460622D2A1204601F0BEFB00280A
:1024F00030D00622D0A1204601F0B7FB002829D019
:102500000622CFA1204601F0B0FB18B30622CEA1CF
:10251000204601F0AAFBE8B10422CDA1204601F03B
:10252000A4FBB8B10422CCA1204601F09EFB88B1E7
:102530000422CBA1204601F098FB58B10422CAA185
:10254000204601F092FB28B10422C9A1204601F0E7
:102550008CFB08B9012010BD0020FCE72DE9F04FED
:1025600085B0054600260027B146B246B346002096
:10257000049003900290804600240090019098E01F
:10258000049801280ED1285D502809D0285DFFF756
:10259000E1FE814606EB860009EB4000C6B201E091
:1025A000002004900398012825D1285D542801D0EB
:1025B000012000E00020295D232901D0012100E055
:1025C0000021084040B1285DFFF7C4FE824608EBB9
:1025D00088000AEB40080EE00020039040F6C4108B
:1025E000804500D98046A44921F81680A34806609A
:1025F0004FF0000800260298012846D1285DFFF719
:10260000A9FE834607EB87000BEB40079A490F8032
:10261000601C285C0D2838D1642F36D89748006894
:1026200001280ED09548006802280AD00846934930
:10263000096830F811009249904A126821F8120096
:102640001DE08E480068012803D08C4800680228ED
:1026500015D189488949096830F811108748006800
:10266000401E5DF82000814209D0834883490968F3
:1026700030F811008249814A126821F812007E4820
:10268000408800907C48808801907D4880897D4901
:102690000860285D232801D101200490285D50287E
:1026A00001D101200390285D542801D1012002901E
:1026B000641C285D0A2803D0B4F5FA7FFFF460AFEC
:1026C00005B0BDE8F08F10B504462046FFF790FE38
:1026D00040B16D48006800F0DFF96B48006800F019
:1026E000F1F9F4E02046FFF78FFE50B1664800682C
:1026F000404200F0D1F964480068404200F0E2F93D
:10270000E5E02046FFF78CFE58B15F4909685D4A55
:102710001268881A00F0C0F95B48006800F0D2F92E
:10272000D5E02046FFF788FE58B15748006800F012
:10273000B3F955490968534A1268881A00F0C2F97A
:10274000C5E02046FFF7CCFE30B1002000F0A4F930
:10275000002000F0B7F9BAE02046FFF779FE70B12B
:1027600049480068C830484908600846006840F693
:10277000C411884202D3084643490860A7E02046B6
:10278000FFF772FE68B140480068C8383E490860EB
:1027900008460068B0F57A7F02D84FF47A70086076
:1027A00095E02046FFF778FE28B14FF48071374856
:1027B000FEF711F98BE02046FFF77AFE28B14FF4BF
:1027C00080713248FEF705F981E02046FFF77CFE74
:1027D00028B140F2DC502A494880888077E057E0F1
:1027E000425550440000000042444E4400000000A6
:1027F000424C544400000000425254440000000087
:10280000425541440000000042554D440000000084
:1028100042554B4400000000425553440000000064
:102820004255534E0000000042555A44000000003B
:102830003C424C54553E00003C42444E553E000044
:102840003C425550553E00003C425254553E00001B
:102850004253544400000000424C54550000000014
:1028600042444E5500000000425550550000000003
:1028700042525455000000001C00002014000020AB
:1028800068000020180000207C00002000080140A3
:102890002046FFF7F5FDB8B14FF480411248FEF72E
:1028A0008BF828B14FF480410F48FEF794F80EE002
:1028B0004FF480410C48FEF77FF840B94FF4804157
:1028C0000948FEF786F802E02046FFF747FE10BDF4
:1028D00010B50648007828B1002004490870044863
:1028E000FFF7F1FE10BD000000080140300000209D
:1028F0009804002008B501210420FEF7DFFA10201B
:10290000ADF800008DF8030003208DF80200694641
:102910001E48FDF7B1FF10211C48FEF75AF84FF48E
:102920008040ADF8000010208DF8030003208DF8E2
:10293000020069461548FDF79FFF4FF48041134898
:10294000FEF749F808BD10B510211048FEF743F80E
:102950004FF4FA7000F02FFD10210C48FEF739F803
:102960004FF4FA7000F027FD10210848FEF733F805
:102970004FF4FA7000F01FFD10210448FEF729F80B
:102980004FF4FA7000F017FD10BD00000008014080
:1029900008B501210820FEF791FA01210846FEF74B
:1029A0008DFA4FF47070ADF8000018208DF8030018
:1029B00003208DF8020069464D48FDF75DFF08BD14
:1029C00030B587B004460D4601210420FEF783FA96
:1029D000ADF81440ADF810500020ADF81600ADF879
:1029E00012008DF8180004A94248FEF79FFB012150
:1029F0004048FEF7F7FF6020ADF800000120ADF879
:102A000002000020ADF80400ADF80C00ADF80E0097
:102A1000ADF80600ADF80800ADF80A006946354883
:102A2000FEF7C1FB08213348FFF715F86946314826
:102A3000FEF7FBFB08212F48FFF71AF869462D48DF
:102A4000FEF740FC08212B48FFF712F86946294899
:102A5000FEF783FC08212748FFF713F801212548DA
:102A6000FEF7C0FE01212348FEF7C8FE214621489B
:102A7000FFF74EF900211F48FFF74CF900211D48D0
:102A8000FFF74AF900211B48FFF748F900211948D0
:102A9000FFF746F907B030BD002809DA4FF4E151DD
:102AA000144A3832118000F5E151121F118008E0FC
:102AB0004FF4E1510F4A34321180C0F5E151121D3B
:102AC00011807047002809DA4FF4E151094A3C327D
:102AD000118000F5E151121D118008E04FF4E15121
:102AE000044A40321180C0F5E151121F1180704735
:102AF000000C01400008004010B50A461AB101233D
:102B0000FE4C236002E00023FC4C2360002114E013
:102B10000023FB4C236000F080031BB10123241F22
:102B2000236003E00023F64C241F23600123F44CB0
:102B300023604306180E4B1CD9B20829E8DB012399
:102B4000EE4C236010BD30B500241CE004F1B00150
:102B5000C8B20021FFF7D0FF00210846FFF7CCFFE5
:102B600000211020FFF7C8FF002508E0E54901EB30
:102B7000C501085D0121FFF7BFFF681CC5B2802DAC
:102B8000F4DB601CC4B2082CE0DB30BD00B50021D2
:102B90008D20FFF7B1FF00211420FFF7ADFF0021CA
:102BA000AF20FFF7A9FF00BD00B500218D20FFF782
:102BB000A3FF00211020FFF79FFF0021AE20FFF7A9
:102BC0009BFF00BD30B500240CE0002506E000208E
:102BD000CC4901EBC5010855681CC5B2802DF6DB58
:102BE000601CC4B2082CF0DBFFF7ADFF30BDF0B5C0
:102BF000144600267F2801DC3F2900DDF0BD0B468E
:102C0000CF1701EB5777FF10C7F10707FAB2CF17BD
:102C100001EB5777FF10A1EBC707FDB2C5F107071E
:102C20000123BB40DEB24CB1B64B03EBC0039B5C4F
:102C30003343B44F07EBC007BB5408E0B14B03EB81
:102C4000C0039B5CB343AF4F07EBC007BB5400BF4F
:102C5000D4E72DE9F04F80460C4615461E46A346A4
:102C6000A5F12000C5B200273EE00C2E07D105EBF0
:102C70004500A54901EB800010F8079004E0A34847
:102C800000EB051010F807904FF0000A26E009F05D
:102C9000800028B121464046099AFFF7A8FF09E0C5
:102CA000099808B9012000E000200246214640466C
:102CB000FFF79DFF4FEA49604FEA1069601CC4B2FC
:102CC000A4EB0B00B04205D15C4608F1010000F016
:102CD000FF0806E00AF1010000F0FF0ABAF1080F50
:102CE000D5DB00BF781CC7B2B742BEDBBDE8F08FB2
:102CF00010B50246012000E050430B1EA1F1010473
:102D0000E1B2F9D110BD2DE9FF4F81B007469146E0
:102D10001E460E9D4FF0000A002439E0301B401E75
:102D2000C1B20A20FFF7E4FFB9FBF0F00A21B0FBC3
:102D3000F1F201FB1208BAF1000F16D1701EA04289
:102D400013DDB8F1000F0ED10120AB4605EBDB71AE
:102D5000491001FB04710090C8B22B462022029951
:102D6000FFF777FF12E04FF0010A0120AB4605EBB9
:102D7000DB71491001FB04710090C8B208F1300109
:102D8000CAB22B460299FFF764FF00BF601CC4B2B1
:102D9000B442C3DB05B0BDE8F08F78B505460E46FA
:102DA000144618E07A2D03DD002506F11000C6B2A6
:102DB0003A2E04DD002005460646FFF703FF0120FA
:102DC000009022780C2331462846FFF742FF05F198
:102DD0000800C5B2641C20780028E3D178BD08B58E
:102DE00001210920FEF76AF801214948FDF715FE87
:102DF00001214848FDF711FE3820ADF800001020F1
:102E00008DF8030002208DF8020069464248FDF764
:102E100033FD01210420FEF751F84FF40040ADF8D6
:102E2000000002208DF8020010208DF80300694692
:102E30003A48FDF721FD0120FDF777FE0020FDF760
:102E4000AAFF0020FDF761FC0020FDF76EFE0020C8
:102E50002B4908390860642000F0ADFA01203049A0
:102E6000C1F88C010021AE20FFF746FE0021D520DD
:102E7000FFF742FE00215020FFF73EFE0021A82070
:102E8000FFF73AFE00213F20FFF736FE0021D32056
:102E9000FFF732FE00210846FFF72EFE00214020FA
:102EA000FFF72AFE00218D20FFF726FE00211420C7
:102EB000FFF722FE00212020FFF71EFE0021022046
:102EC000FFF71AFE0021A120FFF716FE0021C02007
:102ED000FFF712FE0021DA20FFF70EFE002112207C
:102EE000FFF70AFE00218120FFF706FE0021EF20F8
:102EF000FFF702FE0021D92014E00000BC012142AE
:102F00009481214298000020EC42000860470008AC
:102F10000002300000043000000C014000080140B5
:102F200000802142FFF7E8FD0021F120FFF7E4FDDA
:102F30000021DB20FFF7E0FD00213020FFF7DCFD62
:102F40000021A420FFF7D8FD0021A620FFF7D4FD23
:102F50000021AF20FFF7D0FDFFF734FE08BD0000D1
:102F600008B501210420FDF7A9FF4FF40060ADF87A
:102F7000000003208DF8020010208DF80300694640
:102F80005448FDF779FC01210820FDF797FF012047
:102F9000ADF8000003208DF8020010208DF803002A
:102FA00069464D48FDF768FC08BD10B54B480078F0
:102FB000012806D0022821D003283ED004287CD145
:102FC00058E047484088B0F5FA6F04DB4FF4FA60E8
:102FD0004349488008E042484088B0F57A7F03DCE6
:102FE0004FF47A703E4948803D4840884FF0804118
:102FF0008885C9143748FDF7ECFC5FE03848408805
:10300000B0F5FA6F04DB4FF4FA603549488008E008
:1030100033484088B0F57A7F03DC4FF47A7030494A
:1030200048802F48408840F6C911081A89078885CA
:10303000C9142848FDF7CFFC40E029488088B0F546
:10304000FA6F04DB4FF4FA602549888008E02448D1
:103050008088B0F57A7F03DC4FF47A70204988804D
:103060001F4880884FF08041888501211A48FDF76C
:10307000B0FC23E01A488088B0F5FA6F04DB4FF407
:10308000FA601749888008E015488088B0F57A7F93
:1030900003DC4FF47A70124988801148808840F62A
:1030A000C911081A8907888501210B48FDF793FC8F
:1030B00000200A49087001E0FFE700BF00BF10BD13
:1030C00010B506480078401C04490870FFF76DFFF2
:1030D00010BD000000080140000C01402C00002041
:1030E0006800002008B54FF4A060FDF76DF81920C6
:1030F0008DF8000001208DF8010000208DF80200FD
:1031000001208DF803006846FDF763F808BD08B597
:103110004FF4A060FDF758F81C208DF80000002047
:103120008DF801008DF8020001208DF8030068463B
:10313000FDF74FF808BD08B54FF4A060FDF744F85F
:103140001D208DF8000000208DF8010001208DF871
:1031500002008DF803006846FDF73BF808BD08B58E
:103160004FF4A060FDF730F81E208DF8000000201D
:103170008DF8010002208DF8020001208DF8030077
:103180006846FDF726F808BD0EB50121C802FDF717
:1031900095FE6448FDF7F6FE40F2CF70ADF80400EE
:1031A0004720ADF800000020ADF80600ADF80200A1
:1031B0008DF8080069465B48FDF7B8FF01215948C2
:1031C000FEF7D6FD012211465648FEF726FB0021E8
:1031D0005448FEF707FB0EBD0EB501210846FDF76A
:1031E0007AFE4FF08040FDF7CDFE40F6C910ADF8F5
:1031F00004004720ADF8000000208DF80800ADF86D
:103200000600ADF8020069464FF08040FDF78EFFE2
:1032100001218807FEF7ACFD012211469007FEF759
:10322000FCFA00214FF08040FEF7DCFA0EBD0EB52F
:1032300001210220FDF742FE3B48FDF7A3FE40F2CC
:10324000CF70ADF804004720ADF800000020ADF8C5
:103250000600ADF802008DF8080069463248FDF717
:1032600065FF01213048FEF783FD012211462E48FB
:10327000FEF7D3FA00212C48FEF7B4FA0EBD0EB5C6
:1032800001210420FDF727FE2848FDF77BFE4FF4BF
:10329000FA60ADF804004720ADF800000020ADF85A
:1032A00006008DF80800ADF8020069461F48FDF7DA
:1032B0003DFF01211D48FEF75BFD012211461B4821
:1032C000FEF7ABFA00211948FEF78CFA0EBD10B5D7
:1032D000FFF71DFFFFF780FFFFF72DFFFFF7A7FFA9
:1032E000FFF700FFFFF750FF10BD10B501210E489A
:1032F000FEF778FA01218807FEF774FA01210948E0
:10330000FEF770FA10BD10B500210748FEF76AFA03
:1033100000214FF08040FEF765FA00210148FEF7DA
:1033200061FA10BD002C014000040040000800407C
:1033300030B528480068284AB0FBF2F1B1F1807F2F
:1033400001D301201DE021F07F40401E4FF0E0221C
:10335000506150170F22002807DA13071D0E1F4B6C
:1033600000F00F04241F1D5503E013071C0E1C4B17
:103370001C5400BF00204FF0E02290610720106134
:10338000002008B100BFFEE74FF0E020006920F008
:1033900001004FF0E021086130BD002106E00A2164
:1033A00000BF0A1EA1F1010399B2FAD1021EA0F1D9
:1033B0000100F4D17047002107E042F6E06100BF50
:1033C0000A1EA1F1010399B2FAD1021EA0F1010077
:1033D000F3D170478400002040420F0018ED00E058
:1033E00000E400E038B527A200211420FFF7D5FC47
:1033F00028A218210020FFF7D0FC28A2182128209D
:10340000FFF7CBFC28A230210020FFF7C6FC29A241
:1034100030214420FFF7C1FC27A230215A20FFF7BA
:10342000BCFC26480068642190FBF1F40C200223C8
:103430002246302100903720FFF765FC1F480068C6
:10344000642190FBF1F201FB12040C2002232246BE
:10345000302100904E20FFF756FC18480068642188
:1034600090FBF1F201FB12000A2807DA0C2002237C
:103470000022302100904820FFF745FCFFF763FB56
:1034800038BD0000526F626F742053797374656D9C
:10349000000000004D4F44453A00000041505020CC
:1034A000436F6E74726F6C00564F4C544147453AEF
:1034B000000000002E000000560000005400002014
:1034C000014600BF704700BFF64A128802F0400272
:1034D000002AF9D0C2B2F34B1B1D1A80704708B501
:1034E0004FF4A060FCF770FE25208DF8000001204D
:1034F0008DF8010000208DF8020001208DF80300F6
:103500006846FCF766FE08BD08B54FF4A060FCF7FE
:103510005BFE26208DF8000001208DF801008DF85B
:1035200002008DF803006846FCF753FE08BD08B59D
:103530004FF4A060FCF748FE27208DF80000012022
:103540008DF8010002208DF8020001208DF80300A3
:103550006846FCF73EFE08BD08B5012144F20400B0
:10356000FDF7ACFC4FF40070ADF8000003208DF8BF
:10357000020018208DF803006946CB48FDF77CF95E
:103580004FF48060ADF8000004208DF80300694618
:10359000C548FDF771F908BD08B501210420FDF704
:1035A0008DFC01214804FDF796FC0420ADF80000D5
:1035B00003208DF8020018208DF803006946BA48F0
:1035C000FDF75AF90820ADF8000004208DF803003B
:1035D0006946B548FDF750F908BD08B50121082036
:1035E000FDF76CFC01218804FDF775FC4FF4806049
:1035F000ADF8000003208DF8020018208DF80300BC
:103600006946AA48FDF738F94FF40060ADF80000AC
:1036100004208DF803006946A448FDF72DF908BD84
:1036200010B50446012C04D1FFF759FFFFF794FFB2
:103630000CE0022C04D1FFF767FFFFF7ADFF05E0B8
:10364000032C03D1FFF773FFFFF7C7FF10BD7FB552
:1036500005460C4600940020ADF80400ADF80600C5
:10366000ADF80800ADF80C000C20ADF80A00694672
:103670002846FEF7D8FB012240F225512846FEF7E6
:103680006AFC01212846FEF75AFC7FBD10B586B0C2
:103690000446012144F20400FDF710FC4FF40070D1
:1036A000ADF8140003208DF8160018208DF81700CF
:1036B00005A97D48FDF7E0F84FF48060ADF81400EF
:1036C00004208DF8170005A97748FDF7D5F84FF4C9
:1036D000A060FCF779FD25208DF8000001208DF811
:1036E000010000208DF8020001208DF803006846DB
:1036F000FCF76FFD01940020ADF80800ADF80A005A
:10370000ADF80C00ADF810000C20ADF80E0001A9CA
:103710006448FEF788FB012240F225516148FEF71C
:103720001AFC01215F48FEF70AFC06B010BD70B517
:1037300004460D4629462046FEF76EFC00BF402198
:103740002046FEF7D7FC0028F9D070BD70B50646BC
:103750000C46002505E014F8011B3046FFF7E7FF93
:103760006D1C207810B1B5F5FA7FF4D370BD10B59B
:1037700086B00446142101A800F0C2FA01A920462F
:10378000FEF70AFE01A94748FFF7E0FF06B010BDAB
:1037900070B504460D4621464248FFF7D7FF28463C
:1037A000FFF7E5FF42A13F48FFF7D0FF70BD10B51E
:1037B00040F225513B48FEF7B3FC58B340F2255187
:1037C0003848FEF7D7FC3748FEF72AFCC4B2394820
:1037D0000078F8B9384839490968445437480068CE
:1037E000401C3649086008460068401E3249085CA3
:1037F0000A2804D031480068B0F5FA7F0AD90020C1
:103800002D492E4A1268885401202A490870002048
:103810002A49086010BD10B540F225512848FEF72E
:103820007FFC20B140F225512548FEF7A3FC10BDD6
:1038300010B540F225512348FEF772FC80B340F2E8
:1038400025512048FEF796FC1E48FEF7E9FBC4B25E
:103850001848007820BB18481B49096844541A4886
:103860000068401C1849086008460068401E12495C
:10387000085C0D2809D014480068401E085C3E28EA
:1038800003D011480068FF280AD900200A490E4ACF
:103890001268885401200749087000200A4908600E
:1038A00010BD00000038014000080140000C01403C
:1038B0000A0000003000002098040020380000209A
:1038C00000440040004800403C00002010B50121A9
:1038D0001A48FEF750FA80B301211848FEF75CFA47
:1038E00017480078401C1649087016480078401C9C
:1038F000144908701448007801280BD11348007847
:10390000401CC0B211490870142803D1002008706F
:103910000D4908700A480078322808D1002008496B
:1039200008700B480068C0430A49C1F890010A4872
:103930000078012801D1FEF7CBFF10BD002C01401B
:103940004100002040000020820000208100002073
:1039500090012142000021428000002010B5FEF7B6
:103960007CFC3149086031480068401C2F490860E0
:103970002F4800682C49096808442D4908602B48E5
:1039800000680A280BD1084600680A2190FBF1F074
:10399000284908600020264908602449086010BDB5
:1039A000FFF7C6FCFFF7DCFA0220FFF739FE032021
:1039B000FFF736FEFFF78BFCFFF797FCFEF79AFF49
:1039C000FEF77EFC0120FFF72BFEFFF708FAFEF75B
:1039D000EBFB4FF4E1311848FFF739FE4FF4E131CA
:1039E0001648FFF734FE4FF4E1311548FFF72FFE7C
:1039F000FEF7CEFF002141F61F40FEF7E1FFFEF784
:103A0000A2FFFEF776FC0EE0FFF7A8FFFFF7EAFC47
:103A100001200C49087000200B49087000BF0948BC
:103A200000780028FBD1EFE7440000204800002088
:103A30004C000020540000200038014000440040A9
:103A4000004800408200002081000020704700BF35
:103A5000FEE700BFFEE700BFFEE700BFFEE77047DE
:103A600070477047704710B501218807FEF783F94A
:103A700048B101218807FEF78FF9FFF721FB0121EB
:103A80008807FEF775F910BD0CB500200190009075
:103A90006C48006840F480306A49086000BF69489B
:103AA000006800F4003000900198401C01900098DC
:103AB00018B90198B0F5A06FF1D16248006800F420
:103AC000003010B10120009001E00020009000982B
:103AD000012843D15C48006840F010005A49086052
:103AE0000846006820F0030008600846006840F0BF
:103AF00002000860534840685249486008464068E0
:103B000048600846406840F4806048600846406865
:103B100020F47C1048600846406840F4E810486093
:103B20000846006840F08070086000BF45480068A3
:103B300000F000700028F9D04248406820F00300EF
:103B4000404948600846406840F00200486000BFB5
:103B50003C48406800F00C000828F9D10CBD10B5B5
:103B6000FFF792FF10BD10B53648006840F0010025
:103B70003449086008464068344908403149486083
:103B800008460068324908402E4908600846006827
:103B900020F4802008600846406820F4FE00486059
:103BA0004FF41F008860FFF7DAFF4FF000602949EB
:103BB000086010BD10B5002100200022214B5B6879
:103BC00003F00C0121B1042906D0082928D107E00F
:103BD000214B224C236027E01F4B204C236023E025
:103BE000184B5B6803F47010164B5B6803F480326B
:103BF000022303EB904022B9194B4343174C236037
:103C00000DE0104B5B6803F4003323B1144B4343C6
:103C1000124C236003E0104B4343104C236003E03D
:103C20000D4B0E4C236000BF00BF064B5B68C3F317
:103C300003130C4CE15C094B1B68CB40074C236021
:103C400010BD000000100240002002400000FFF8FC
:103C5000FFFFF6FE08ED00E000127A00840000206D
:103C600000093D0088000020704740EA010370B55C
:103C70009B072ED14FF00136042A2AD308C810C959
:103C80009D1B9D43121F15EAC61517D0D8B2E1B28D
:103C9000401A50EA056110D198B2A1B2401A50EA18
:103CA00005410AD123F07F4024F07F41401A50EAB9
:103CB000052102D1180EA0EB146070BDA342DBD029
:103CC00018BA21BA884201D9012070BD4FF0FF30E7
:103CD00070BD0AB9002070BD10F8013B11F8014B0E
:103CE00063B1A3420AD1521E08D010F8013B11F86B
:103CF000014B1BB1A34201D1521EEDD1181B70BD67
:103D00004FF0000200B5134694469646203922BF74
:103D1000A0E80C50A0E80C50B1F12001BFF4F7AFBF
:103D2000090728BFA0E80C5048BF0CC05DF804EBA1
:103D3000890028BF40F8042B08BF704748BF20F80F
:103D4000022B11F0804F18BF00F8012B704770470D
:103D5000704770477047754600F02CF8AE46050076
:103D60006946534620F00700854618B020B5FCF799
:103D700019FABDE820404FF000064FF000074FF061
:103D800000084FF0000B21F00701AC46ACE8C00979
:103D9000ACE8C009ACE8C009ACE8C0098D46704782
:103DA00010B50446AFF300802046BDE81040FCF794
:103DB000E4B90000004870478C0600202DE9C0419E
:103DC00030B4DFF8A0C23CEA111418BF3CEA131467
:103DD00000F0EC8081EA03051CEA111444EAD57472
:103DE00018BF1CEA131500F0C780A4EB05044FF0C0
:103DF000004545EAC12145EAC32341EA505143EA5F
:103E0000525304F17F74994204F500344FEAC02004
:103E10004FEAC22208BF904200F09C804FEA13652F
:103E20000FF24016765D4FEA134506FB05F7C7F122
:103E3000807706FB07F74FEAD737A7FB0368764280
:103E4000C8F58038A7FB06CE38BFA8F1010807FBEC
:103E500008E64FF0000EA6FB028CE6FB03CEDCF179
:103E6000000CCEF1004E38BFAEF1010EA6FB0C588F
:103E70004FF000074FF00005E6FB0E87A1FB08C6D8
:103E8000A0FB07CE16EB0E0645F10005E1FB07652A
:103E900015F1E04E7EBFA4F580345FEA46066D4121
:103EA00016F1800745F100054FEA17274FEA06662D
:103EB00047EA0567A6F1DE46B6F1805F4FEA1525B1
:103EC0001FD9384624F0010C05EBC471BCF1FE6F1C
:103ED00001EB0C1102D8F0BCBDE8008124425CBFAC
:103EE00001F5801E9EEAC47F02D4F0BCBDE80081CB
:103EF000244238D4F0BCA1F1C041BDE8004100F03B
:103F0000EFB94FEAD22242EA43524FEAD323A7FB4A
:103F100002864FEAD02040EA415007FB03661EEAC2
:103F20000E0F4FEAD12105FB026658BFA6EB0056E3
:103F3000B6EB00564FEA520E4EEAC37E18EB0E0E59
:103F400056EB530EBDD518EB02085E417F1C55F1B0
:103F50000005B6E74FF480154FF000074FF000065C
:103F60004FF00008ADE7F0BC4FF0000001F1C04198
:103F700001F00041BDE8008111EA0C1F0CEA1315A5
:103F800000D00CE013EA0C1F00F025804FF0000079
:103F9000F0BC81EA030101F00041BDE80081F0BC02
:103FA000BDE8004181EA030100F09AB9F0BCBDE828
:103FB000004170B500F046F9097EFC3E00F007B8FC
:103FC00081EA03014FF0000001F00041704781EAEF
:103FD000030100F085B9F0BCBDE800414FF00000DE
:103FE00021497047FFFDFBF9F7F5F4F2F0EEEDEB38
:103FF000E9E8E6E4E3E1E0DEDDDBDAD8D7D5D4D3E7
:10400000D1D0CFCDCCCBCAC8C7C6C5C4C2C1C0BF32
:10401000BEBDBCBBBAB9B8B7B6B5B4B3B2B1B0AF38
:10402000AEADACABAAA9A8A8A7A6A5A4A3A3A2A11C
:10403000A09F9F9E9D9C9C9B9A99999897979695D7
:1040400095949393929191908F8F8E8E8D8C8C8B73
:104050008B8A8989888887878685858484838382FB
:10406000828181800000FF070000F87F4FEA410352
:104070004FEA5353A3F58063D3F11E03C8BFD3F1B6
:10408000210C0CDD4FF0004242EAC12242EA5052BC
:1040900032FA03FC8CEAE17CACEBE1707047102B48
:1040A000C4BF0020704703F5787CBCF1FF3F04D00B
:1040B0006FF0004282EA2100704770B500F0C2F84C
:1040C0004992248000207047F2E7B0FA80F310FA9A
:1040D00003F10AD0C3F11D0303F580634FEA415099
:1040E0004FEA035202EBD12170474FF000007047B6
:1040F000DFF848C170B51CEA111E1EBF1CEA13157B
:104100009EEA0C0F95EA0C0F00F06F8081EA030421
:1041100023EA4C134EEAD47E21EA4C1141F480117B
:1041200043F48013AE44A1FB024CA0FB0365AEF147
:104130007F7E361955EB0C05A1FB034C4CF10003B7
:10414000A0FB021C16EB0C06654153F1000309426B
:1041500018BF46F0010613F4007F0BD14FEA03317C
:104160004FEA0530340341EA155140EA16506FF02A
:1041700003020AE04FEAC3214FEAC520F40241EAF4
:10418000555140EA56506FF0020202EB2E4201EB0D
:10419000025585EACE710AD05FEA440C18BF24F0BC
:1041A000004450F1000041F1000120EAD47040F2D7
:1041B000FE7C624500D270BDA84214BF4FF080441F
:1041C0004FF04044002E08BF0024BEF1806FA8BF0E
:1041D000A1F1C041BDE8704080F282804FF0000044
:1041E00001F1C04101F0004170479EEA0C0F0CEA5A
:1041F000131518BF95EA0C0F06D04FF0000081EAA6
:10420000030E0EF0004170BD00F01CF88900013E65
:1042100000F007B800F009B84FEA430C5FEA5C5CB5
:1042200008D081EA030100F05BB84FEA410C5FEA75
:104230005C5CF6D14FF00000014970470000FF07B9
:104240000000F87F0EF1020E2EF0030E5EF8046BF4
:10425000364205D4012A43EB030515F5001F12D899
:10426000012841EB010C1CF5001F0CD80ED14FEAC0
:10427000D17C15F5001F0CEB4C0C0CF1020C08BFA7
:104280004CEBD37C04E04FF0080C01E04FEAD37C08
:104290000CEB4C0526FA05F606F00706B6F1040C01
:1042A00006D20EEB860CBDE870404CF0010C604766
:1042B000DFE80CF0090B02024FF000414FF0000064
:1042C000A1F5002170BD19461046012851EB0104EB
:1042D00018BFD4F5001484BF002001F0004170BD68
:1042E0000808A0F500114FEA3101704700000000F6
:1042F0000000000000000000000000003F4000003F
:1043000000000000000030004000300040000000CD
:1043100009000BC03D000BC03D00090018C024403F
:104320007FE0224031800000180024C01B000D8077
:104330003240018003801C4027401C800740004021
:1043400010006000000000000000000000000000FD
:1043500000001F80204040200000402020401F809F
:1043600000000000090006001F8006000900000090
:10437000040004003F8004000400000000100060FE
:10438000000000000000000004000400040004001D
:1043900004000000000000400000000000000000D9
:1043A000002001C006003800400000001F802040AF
:1043B000204020401F800000000010403FC000400F
:1043C0000000000018C02140224024401840000096
:1043D00010802040244024401B80000002000D007B
:1043E00011003FC0014000003C8024402440244094
:1043F000238000001F8024402440344003800000BC
:104400003000200027C03800200000001B8024401E
:10441000244024401B8000001C0022C02240224077
:104420001F800000000000000840000000000000A5
:104430000000000004600000000000000000040014
:104440000A0011002080404009000900090009000D
:104450000900000000004040208011000A00040014
:104460001800200023402400180000001F80204076
:10447000274029401F400000004007C039000F00BE
:1044800001C0004020403FC0244024401B80000069
:104490001F802040204020403080000020403FC04E
:1044A000204020401F80000020403FC024402E407C
:1044B00030C0000020403FC024402E0030000000EB
:1044C0000F001080204022403380020020403FC077
:1044D000040004003FC02040204020403FC0204056
:1044E000204000000060202020203FC0200020004D
:1044F00020403FC024400B0030C0204020403FC03F
:1045000020400040004000C03FC03C0003C03C00D1
:104510003FC0000020403FC00C4023003FC02000AF
:104520001F802040204020401F80000020403FC0CE
:1045300024402400180000001F802140214020E07A
:104540001FA0000020403FC02440260019C00040AA
:1045500018C0244024402240318000003000204018
:104560003FC020403000000020003F80004000405D
:104570003F80200020003E0001C0070038002000DE
:10458000380007C03C0007C038000000204039C098
:10459000060039C0204000002000384007C03840E5
:1045A00020000000304021C02640384020C00000DC
:1045B000000000007FE0402040200000000070006C
:1045C0000C000380004000000000402040207FE0FD
:1045D000000000000000200040002000000000005B
:1045E000001000100010001000100010000000006B
:1045F000400000000000000000000280054005406F
:1046000003C0004020003FC004400440038000007D
:1046100000000380044004400640000000000380C6
:10462000044024403FC00040000003800540054096
:1046300003400000000004401FC02440244020002C
:10464000000002E0055005500650042020403FC005
:104650000440040003C000400000044027C00040A4
:104660000000000000100010041027E0000000000F
:1046700020403FC00140070004C0044020402040CB
:104680003FC000400040000007C0040007C0040015
:1046900003C00000044007C00440040003C0004001
:1046A000000003800440044003800000041007F071
:1046B00004500440038000000000038004400450C4
:1046C00007F00010044007C002400400040000008E
:1046D000000006400540054004C000000000040042
:1046E0001F80044000400000040007800040044098
:1046F00007C000400400070004C001800600040059
:10470000060001C0070001C006000000044006C00A
:10471000010006C0044000000410071004E00180FE
:10472000060004000000044005C0064004400000EC
:104730000000000004007BE04020000000000000BA
:104740000000FFF000000000000040207BE00400BB
:1047500000000000400080004000200020004000D9
:104760000000000000000000000000000000000049
:104770000000000000001FCC000C00000000000042
:1047800000000800300060000800300060000000F9
:10479000022003FC1E20022003FC1E200220000039
:1047A00000000E1811043FFF10840C780000000078
:1047B0000F0010840F3800C00778188400780000BC
:1047C00000780F8410C411240E9800E400840008BF
:1047D00008006800700000000000000000000000F9
:1047E00000000000000007E018182004400200004C
:1047F000000040022004181807E00000000000003C
:104800000240024001800FF001800240024000009F
:104810000080008000800FF8008000800080000091
:104820000001000D000E000000000000000000006C
:1048300000000080008000800080008000800080F8
:104840000000000C000C0000000000000000000050
:10485000000000060018006001800600180020001B
:10486000000007F0080810041004080807F0000012
:104870000000080408041FFC0004000400000000FD
:1048800000000E0C10141024104411840E0C0000B3
:1048900000000C1810041104110412880C700000A0
:1048A000000000E00320042408241FFC0024000072
:1048B00000001F981084110411041088107000006B
:1048C000000007F008881104110418880070000027
:1048D00000001C00100010FC13001C001000000061
:1048E00000000E3811441084108411440E3800006A
:1048F00000000700088C10441044088807F00000EE
:10490000000000000000030C030C00000000000089
:10491000000000000001010600000000000000008F
:10492000000000800140022004100808100400006C
:104930000220022002200220022002200220000089
:10494000000010040808041002200140008000004C
:1049500000000E001200100C106C10800F00000000
:1049600003E00C1813E4142417C4082807D000002F
:104970000004003C03C41C40074000E4001C000489
:1049800010041FFC1104110411040E8800700000B3
:1049900003E00C1810041004100410081C10000090
:1049A00010041FFC100410041004080807F0000095
:1049B00010041FFC1104110417C41004081800008F
:1049C00010041FFC1104110017C0100008000000A3
:1049D00003E00C181004100410441C780040000080
:1049E00010041FFC10840080008010841FFC100441
:1049F0000000100410041FFC10041004000000004C
:104A000000030001100110011FFE10001000000043
:104A100010041FFC110403801464181C100400000F
:104A200010041FFC1004000400040004000C00002B
:104A300010041FFC1F0000FC1F001FFC10040000DE
:104A400010041FFC0C04030000E010181FFC1000F1
:104A500007F00808100410041004080807F000000C
:104A600010041FFC10841080108010800F000000C4
:104A700007F0081810241024101C080A07F2000080
:104A800010041FFC1104110011C011300E0C0004A1
:104A900000000E1C11041084108410441C38000007
:104AA0001800100010041FFC100410001800000073
:104AB00010001FF810040004000410041FF8100078
:104AC00010001E0011E0001C007013801C0010007C
:104AD0001FC0103C00E01F0000E0103C1FC00000A1
:104AE0001004180C163401C001C01634180C100440
:104AF00010001C00130400FC13041C001000000034
:104B00000804101C1064108413041C041018000006
:104B10000000000000007FFE400240024002000052
:104B2000000030000C0003800060001C0003000047
:104B300000004002400240027FFE00000000000032
:104B40000000000020004000400040002000000065
:104B5000000100010001000100010001000100014D
:104B600000004000400020000000000000000000A5
:104B700000000098012401440144014400FC0004A9
:104B800010001FFC00880104010400880070000070
:104B90000000007000880104010401040088000086
:104BA0000000007000880104010411081FFC0004CB
:104BB000000000F8014401440144014400C8000021
:104BC0000000010401040FFC11041104110018007D
:104BD000000000D601290129012901C901060000B0
:104BE00010041FFC008401000100010400FC00040B
:104BF00000000104190419FC000400040000000076
:104C00000000000300010101190119FE000000006D
:104C100010041FFC0024004001B4010C010400003A
:104C20000000100410041FFC000400040000000039
:104C3000010401FC0104010001FC0104010000FC6D
:104C4000010401FC008401000100010400FC0004D7
:104C5000000000F8010401040104010400F8000050
:104C6000010101FF008501040104008800700000BB
:104C700000000070008801040104010501FF00012B
:104C80000104010401FC0084010401000180000012
:104C9000000000CC0124012401240124019800001B
:104CA00000000100010007F80104010400000000F9
:104CB000010001F8000400040004010801FC0004E4
:104CC000010001800170000C0010016001800100F2
:104CD00001F0010C003001C00030010C01F00100B6
:104CE00000000104018C00740170018C01040000BB
:104CF000010101810171000E0018016001800100B5
:104D000000000184010C013401440184010C000005
:104D1000000000000000000001003EFC40024002D4
:104D20000000000000000000FFFF00000000000085
:104D30000000400240023EFC0100000000000000B4
:104D40000000600080008000400040002000200043
:104D5000704D0008000000209800000028010008A5
:104D6000084E000898000020580C0000440100087C
:104D70000000000001020304010203040607080901
:104D80000204060800000000DC050000DC05DC056C
:104D9000DC05DC05DC05DC05DC05DC0500000000CD
:104DA0000000000000000000000000000000000003
:104DB00000000000000000000000000000000000F3
:104DC00000000000000000000000000000000000E3
:104DD0000000000000000000DC05DC05DC05DC054F
:104DE000DC05DC05DC05DC05DC050000B80B00009B
:104DF0000100000000A24A040000000000000000C2
:084E0000010203040607080982
:04000005080000ED02
:00000001FF
